S015000046696E616C5F50726F6A6563742E73726563EF
S11300000C942A000C9447000C9447000C9447006D
S11300100C9447000C9447000C9447000C94470040
S11300200C94D5000C9447000C9447000C944700A2
S11300300C9447000C9447000C9447000C94470020
S11300400C9447000C9447000C9447000C94470010
S11300500C94470011241FBECFE5D4E0DEBFCDBF12
S113006010E0A0E6B0E0E4E2F9E002C005900D92F1
S1130070A039B107D9F720E0A0E9B0E001C01D9292
S1130080A439B207E1F70E9413020C9490040C9473
S11300900000C498C5988BBB89EF90E00197F1F7F5
S11300A000C00000C69A89EF90E00197F1F700C004
S11300B00000C69889EF90E00197F1F700C00000B6
S11300C008958FEF8ABB87B3806787BB88E30E945C
S11300D049008CE00E94490081E00E944900089593
S11300E0C49AC598C69AE9EFF0E03197F1F700C0D9
S11300F000008BBB89EF90E00197F1F700C000008E
S1130100C69AE9EFF0E03197F1F700C00000C69815
S113011089EF90E00197F1F700C0000008950F9374
S11301201F93CF93FC018081882359F08F01C0E095
S11301300E947000CF5FF801EC0FF11D80818111E6
S1130140F7CFCF911F910F910895882319F0813033
S113015019F004C0962F02C090E4960F892F80688E
S11301600E9449000895CF93DF93CDB7DEB760971F
S11301700FB6F894DEBF0FBECDBF4AE050E0BE011B
S11301806F5F7F4F0E945004CE0101960E948F0042
S113019060960FB6F894DEBF0FBECDBFDF91CF914E
S11301A0089581E00E94490008951F920F920FB6AE
S11301B00F9211248F939F938091900090919100BE
S11301C0019690939100809390009F918F910F904E
S11301D00FBE0F901F90189594B321E030E0A90151
S11301E002C0440F551F6A95E2F7942B94BB94B355
S11301F002C0220F331F8A95E2F7822F809598233D
S113020094BB85B34095482345BB85B3282B25BBB8
S11302100895789484E089BF1FBC08951DBC1CBC5C
S113022081E08EBD80E288BF84E088BF1092910097
S1130230109290000895CF93DF9395B3C1E0D0E07E
S11302409E0102C0220F331F6A95E2F7922B95BBE1
S113025093E09A95F1F7000095B32095292325BBE7
S113026002C0CC0FDD1F8A95E2F783B390E08C23A4
S11302709D23892BD1F30E940E0183B390E08C233C
S11302809D23892BD1F746B557B5A0919000B09125
S113029091002FEF3FEF0E943A04640F751F811DF8
S11302A0911D0E94410326E933E44BE85CE30E947C
S11302B0CD0325E93FEB46ED53E30E94CD030E94B5
S11302C00903CB01DF91CF910895789485B58864B3
S11302D085BD85B5806285BD85B5836085BD89B7DB
S11302E0806889BF0895CF93C82F8F9A8091920018
S11302F0C81729F1C81720F481508093920005C0D3
S11303008C1718F48F5F809392006091920070E0D4
S113031080E090E00E943F0320E030E048EC52E4AB
S11303200E94970220E030E04FE753E40E94CD039F
S11303300E94090363BD809192008C13DBCFCF919F
S1130340089581B3836081BB0895CF93DF936817C9
S113035079072CF480E690E08093930023C08617FD
S113036097072CF482E690E0809393001BC082E30D
S11303700E947301909A91982FED83E994E02150A3
S113038080409040E1F700C00000909A63E082E072
S11303900E941B01EC0165E084E00E941B01BE0188
S11303A00E94A501DF91CF910895CF93DF93C82FC9
S11303B082E30E947301CC3481F0C235D9F4919A5E
S11303C090982FE78AE196E0215080409040E1F731
S11303D000C00000909A91980DC0909A91982FE7D0
S11303E08AE196E0215080409040E1F700C000008F
S11303F0919A90982FED83E994E0215080409040A9
S1130400E1F700C00000909A63E082E00E941B01C3
S1130410EC0165E084E00E941B01BE010E94A5017D
S1130420DF91CF910895CF93DF93CDB7DEB7AB972C
S11304300FB6F894DEBF0FBECDBF0E9409010E9423
S1130440650161E080E00E94EC0063E082E00E94CC
S1130450EC0065E084E00E94EC000E9461000E94D0
S1130460A10163E082E00E941B018C0165E084E04D
S11304700E941B01B8010E94A50180E50E9473013E
S113048080E1E4E6F0E0DE01119601900D928A9598
S1130490E1F78DE0E4E7F0E0DE01519601900D9282
S11304A08A95E1F78EE0E1E8F0E0DE015E960190E6
S11304B00D928A95E1F7CE0101960E948F0061E0CA
S11304C080E00E941B010E94B30060E080E00E9473
S11304D0A50061E080E00E941B010F9764F7809102
S11304E093008C3461F0823599F40E94D100CE01DE
S11304F041960E948F008CE40E94D50109C00E949D
S1130500D100CE014E960E948F0082E50E94D50153
S113051080E50E9473012FE38DE093E02150804039
S11305209040E1F700C000000E94D100C4CF0E94B7
S1130530AB020C9493030E948C0358F00E94850331
S113054040F029F45F3F29F00C947C0351110C9482
S1130550C7030C9482030E94A40368F39923B1F3A4
S1130560552391F3951B550BBB27AA2762177307D5
S1130570840738F09F5F5F4F220F331F441FAA1F69
S1130580A9F335D00E2E3AF0E0E832D09150504025
S1130590E695001CCAF72BD0FE2F29D0660F771FD3
S11305A0881FBB1F261737074807AB07B0E809F0B9
S11305B0BB0B802DBF01FF2793585F4F3AF09E3F3E
S11305C0510578F00C947C030C94C7035F3FE4F36B
S11305D0983ED4F3869577956795B795F7959F5F81
S11305E0C9F7880F911D9695879597F90895E1E0CD
S11305F0660F771F881FBB1F621773078407BA072C
S113060020F0621B730B840BBA0BEE1F88F7E09586
S113061008950E9410036894B1110C94C7030895BF
S11306200E94AC0388F09F5798F0B92F9927B751CF
S1130630B0F0E1F0660F771F881F991F1AF0BA9582
S1130640C9F714C0B13091F00E94C603B1E0089517
S11306500C94C603672F782F8827B85F39F0B93F09
S1130660CCF3869577956795B395D9F73EF4909535
S11306708095709561957F4F8F4F9F4F0895E894B3
S113068009C097FB3EF490958095709561957F4FD6
S11306908F4F9F4F9923A9F0F92F96E9BB27939584
S11306A0F695879577956795B795F111F8CFFAF494
S11306B0BB0F11F460FF1BC06F5F7F4F8F4F9F4FC5
S11306C016C0882311F096E911C0772321F09EE823
S11306D0872F762F05C0662371F096E8862F70E089
S11306E060E02AF09A95660F771F881FDAF7880F63
S11306F09695879597F9089597F99F6780E870E034
S113070060E008959FEF80EC089500240A94161683
S1130710170618060906089500240A9412161306EB
S1130720140605060895092E0394000C11F4882379
S113073052F0BB0F40F4BF2B11F460FF04C06F5F95
S11307407F4F8F4F9F4F089557FD9058440F551F6B
S113075059F05F3F71F04795880F97FB991F61F03F
S11307609F3F79F087950895121613061406551FB6
S1130770F2CF4695F1DF08C0161617061806991F22
S1130780F1CF86957105610508940895E894BB2717
S113079066277727CB0197F908950E94E0030C940C
S11307A093030E94850338F00E948C0320F0952364
S11307B011F00C947C030C94820311240C94C70351
S11307C00E94A40370F3959FC1F3950F50E0551F49
S11307D0629FF001729FBB27F00DB11D639FAA2792
S11307E0F00DB11DAA1F649F6627B00DA11D661FE1
S11307F0829F2227B00DA11D621F739FB00DA11D02
S1130800621F839FA00D611D221F749F3327A00DBB
S1130810611D231F849F600D211D822F762F6A2F57
S113082011249F5750409AF0F1F088234AF0EE0FBC
S1130830FF1FBB1F661F771F881F91505040A9F7E9
S11308409E3F510580F00C947C030C94C7035F3FDA
S1130850E4F3983ED4F3869577956795B795F79525
S1130860E7959F5FC1F7FE2B880F911D969587959D
S113087097F908950E944104B7FF0895821B930BD2
S11308800895A29FB001B39FC001A39F700D811D65
S11308901124911DB29F700D811D1124911D089585
S11308A04532510520F4423010F00C945B04FB01F6
S11308B01082CB010895BB274A3031F4992322F4E6
S11308C0BDE2909581959F4F0C946704BB27FB0173
S11308D05527AA27880F991FAA1FA41710F0A41B35
S11308E083955051B9F7A05DAA3308F0A95DA1938F
S11308F0009779F7B111B1931192CB010C94800454
S1130900DC01FC01672F71917723E1F7329704C072
S11309107C916D9370836291AE17BF07C8F30895FD
S1070920F894FFCF75
S113092452004C007468652064697374616E636575
S1130934203D20007475726E696E67204C65667480
S1130944007475726E696E6720526967687400007A
S9030000FC
